:060000000A128A110C280F
:10000800FE00030EF1000A08F2000A128A11DC2E23
:100018000A128A110F2883136530FD000730FE008D
:100028006330FF00553084000A128A1154270A12DF
:100038008A11E501E601E701E801E901EA01EB01BE
:10004800EC01F901FA0183010A128A11482C831282
:1000580003132D088039B2003208B7002D08B2000A
:100068003207B3003308BD00AC1F3B283C283D28AD
:100078003D143D0803194128422851283D0A031D13
:10008800462847284F280030AD000030AC0000302B
:10009800AB000030AA00AC1759280030AD00003082
:1000A800AC000030AB000030AA0031088039B20043
:1000B8003208B7063108B2003207B3003308BC0073
:1000C800B01F6728682869283C143C0803196D2864
:1000D8006E287D283C0A031D722873287B2800306F
:1000E800B1000030B0000030AF000030AE00B017F3
:1000F80085280030B1000030B0000030AF0000307B
:10010800AE003C08031989288A288F283D08031D5A
:100118008E288F2898280030AD000030AC000030C1
:10012800AB000030AA008B2B2A08B2003208F3007B
:1001380030080A128A1127270A128A1174088312B2
:100148000313C3007308C2004208B200B301B4012C
:10015800B5013508BB003408BA003308B9003208C5
:10016800B8004308B200B301B401B5013508C100B5
:100178003408C0003308BF003208BE002B08B200A4
:100188003208F3002F080A128A1127270A128A1147
:10019800740883120313C3007308C2004208B20034
:1001A800B301B401B5013208B807330803110318C5
:1001B800013E0319E028B907340803110318013E6A
:1001C8000319E728BA07350803110318013E031974
:1001D800EE28BB074308B200B301B401B5013208E9
:1001E800BE07330803110318013E0319FC28BF0793
:1001F800340803110318013E03190329C007350801
:1002080003110318013E03190A29C1072C08B2007B
:100218003208F3002E080A128A1127270A128A11B7
:10022800740883120313C3007308C2004208B200A3
:10023800B301B401B5013208B80733080311031834
:10024800013E03192829B907340803110318013E90
:1002580003192F29BA07350803110318013E03199A
:100268003629BB074308B200B301B401B50132080F
:10027800BE07330803110318013E03194429BF07B9
:10028800340803110318013E03194B29C007350828
:1002980003110318013E03195229C1070830B2009F
:1002A8000310B80DB90DBA0DBB0DB20B54292B08AC
:1002B800B2003208F3002E080A128A1127270A1200
:1002C8008A11740883120313C3007308C20042081A
:1002D800B2004308B300B401B5013208B8073308C7
:1002E80003110318013E03197A29B90734080311C9
:1002F8000318013E03198129BA07350803110318A9
:10030800013E03198829BB072A08B2003208F30006
:100318002F080A128A1127270A128A1174088312D1
:100328000313C3007308C2004208B2004308B300B5
:10033800B401B5013208B807330803110318013EA8
:100348000319A729B907340803110318013E031933
:10035800AE29BA07350803110318013E0319B52958
:10036800BB070830B2000310B80DB90DBA0DBB0DAC
:10037800B20BB7292A08B2003208F3002E080A1275
:100388008A1127270A128A11740883120313C300DB
:100398007308C2004208B2004308B300B401B501B3
:1003A8003208B807330803110318013E0319DD2981
:1003B800B907340803110318013E0319E429BA07E1
:1003C800350803110318013E0319EB29BB072B0855
:1003D800B2003208F30030080A128A1127270A12DD
:1003E8008A11740883120313C3007308C2004208F9
:1003F800B2004308B300B401B5013208BE073308A0
:1004080003110318013E03190A2ABF073408031110
:100418000318013E0319112AC007350803110318F0
:10042800013E0319182AC1072C08B2003208F3004C
:100438002F080A128A1127270A128A1174088312B0
:100448000313C3007308C2004208B2004308B30094
:10045800B401B5013208BE07330803110318013E81
:100468000319372ABF07340803110318013E03197B
:100478003E2AC007350803110318013E0319452A0F
:10048800C1072C08B2003208F30030080A128A119A
:1004980027270A128A11740883120313C3007308EA
:1004A800C2004208B2004308B300B401B5010830E5
:1004B8000310B20DB30DB40DB50DFF3E031D5C2A3C
:1004C8003208BE07330803110318013E03196D2AC9
:1004D800BF07340803110318013E0319742AC00723
:1004E800350803110318013E03197B2AC107380890
:1004F800B2003908B3003A08B4003B08B500183018
:100508000310B50CB40CB30CB20CFF3E031D842AC7
:100518003208BE07330803110318013E0319952A50
:10052800BF07340803110318013E03199C2AC007AA
:10053800350803110318013E0319A32AC10708301F
:10054800B2000310B80DB90DBA0DBB0DB20BA52A38
:100558003D083C07B200B301B30D3208823EC20029
:1005680033080318013EFF3EC300D72A0130B2000A
:100578000310BE0DBF0DC00DC10DB20BBC2ABB1FB1
:10058800C62AC72AC82A3E140130B2000310B80D83
:10059800B90DBA0DBB0DB20BCA2AFF30C20703183A
:1005A800C30AFF30C307C01FDA2ADB2ABA2ABC01F4
:1005B800BB1FDF2AE02AFC2AFF303805B200FF30D3
:1005C8003905B300FF303A05B4007F303B05B5006C
:1005D80035083404330432040319F32AF42AF72AB9
:1005E800BC01BC0AFC2A3E1CFA2AFB2AFC2AF42A73
:1005F8003C080319002B012B322B0130BE070030B9
:1006080003180130BF07003003180130C00700305D
:1006180003180130C107411C122B132B322B3E0843
:10062800B2003F08B3004008B4004108B5000130EB
:10063800B600350DB50CB40CB30CB20CB60B1D2BB3
:100648003508C1003408C0003308BF003208BE00B6
:100658000130C2070318C30A0030C3074308803AB1
:10066800FF0080307F02031D3B2BFF304202031C3A
:100678003E2B3F2B4A2B7F3083120313C10080305F
:10068800C0000030BF000030BE007F2B8312031370
:100698004308803AFF0080307F02031D552B01304C
:1006A80042020318582B592B652B00308312031371
:1006B800C1000030C0000030BF000030BE00B701EC
:1006C8007F2B831203134208B2003208BD00FF30AB
:1006D800BE05FF30BF057F30C0050030C1053D1C99
:1006E800762B772B782BC0173D08B2000310320CFD
:1006F800B3003308C1003708B2003208C10441080A
:10070800AD004008AC003F08AB003E08AA00080056
:1007180083120313A40024080319932B942BA82BEA
:10072800F61F972B982BA82B7309A6007409A7000E
:100738007509A8007609A900A60A0319A70A0319CA
:10074800A80A0319A90AB02B7608A9007508A800F9
:100758007408A7007308A600760875047404730467
:10076800031DB72BB82BC12B0030F6000030F50065
:100778000030F4000030F300472C9630A000200829
:10078800A500D32B0130A0002008A50701300310D5
:10079800A90CA80CA70CA60CFF3E031DCB2BFE3002
:1007A8002905031DD82BD92BC62BF52B0130A0000A
:1007B8002008A5070130A607003003180130A70755
:1007C800003003180130A807003003180130A907CA
:1007D80001300310A90CA80CA70CA60CFF3E031DA2
:1007E800ED2BFF302905031DFA2BFB2BDA2B072CE9
:1007F8000130A5020130A0000310A60DA70DA80D19
:10080800A90DA00B002CA81B0A2C0B2C112C0230B4
:1008180025020318102C112CFC2B2518142C152C30
:100828001D2CFF30A605FF30A7057F30A805FF3037
:10083800A9050310A50C2508A000A101A201A30188
:1008480018300310A00DA10DA20DA30DFF3E031D2E
:10085800252C2008A6042108A7042208A804230898
:10086800A90424080319392C3A2C3F2CF61F3D2CD7
:100878003E2C3F2CA9172908F6002808F500270860
:10088800F4002608F30008000A128A118F260A12BB
:100898008A11831203139F146C08CD00CE01CF0177
:1008A800D0015008F6004F08F5004E08F4004D0836
:1008B800F30001300A128A118C230A128A11760871
:1008C80083120313B1007508B0007408AF007308F1
:1008D800AE003C30AD00A030AC00A030AB00A13081
:1008E800AA000A128A112B200A128A1183120313F2
:1008F8002D08D4002C08D3002B08D2002A08D100D8
:100908005408B1005308B0005208AF005108AE00B7
:100918004230AD00C830AC000030AB000030AA0057
:100928000A128A112B200A128A11831203132D0826
:10093800C7002C08C6002B08C5002A08C4000A12E4
:100948008A11EF240A128A11831203134408CD0076
:100958004D08EB006B080A128A11D4250A128A1175
:10096800831203136808553E840083130008CD00E2
:100978004D08E5006908553E84000008CD004D0883
:10098800E6006A08553E84000008CD004D08E700DF
:100998009F18CF2CD02C502C1F0CCD004D0C0F398C
:1009A800003A031DD82CD92CDE2C1F08C339043873
:1009B8009F00E02CC3309F05C73083120313CD007E
:1009C800E52CCD0BE42CE82C831203139F14502C38
:1009D8000A128A110C28031083120313460D470DBF
:1009E800C8004808F8007808031DFB2CFC2C052DCE
:1009F8000030C7000030C6000030C5000030C40019
:100A08006A2D4408C8004508C9004608CA004708B6
:100A1800CB001F300310CB0CCA0CC90CC80CFF3E0E
:100A2800031D0E2D4808CC004C08F700C617FF30F0
:100A3800C405FF30C505FF30C6050030C705963030
:100A4800F802F81F282D292D432D7808803A973E63
:100A580003182F2D302D312DFC2C01300310C70C1D
:100A6800C60CC50CC40CFF3E031D322D0130C80056
:100A78004808F807031D412D422D312D5A2D2030ED
:100A88007802031C482D492D552DFC2C0130C80037
:100A98000310C40DC50DC60DC70DC80B4C2D013074
:100AA800F8027808031D592D5A2D4A2D7708031985
:100AB8005E2D5F2D6A2DC409C509C609C709C40A78
:100AC8000319C50A0319C60A0319C70A08008312BD
:100AD8000313A101F41F712D722D792DF309F40967
:100AE800F30A0319F40AA101A10AF61F7C2D7D2D32
:100AF800862DF509F609F50A0319F60A0130F700FB
:100B08007708A106A201A3017308740403198D2DA7
:100B18008E2DC52DA001A00A9C2D01300310F30DC8
:100B2800F40DFF3E031D922D0130F7007708A00752
:100B3800F41F9F2DA02D912D01300310A20DA30DA0
:100B4800FF3E031DA12D74087602031DAD2D730809
:100B58007502031CB02DB12DB82D7308F502740869
:100B6800031CF603F602221401300310F40CF30CF4
:100B7800FF3E031DB92D0130A002031DC42DC52D54
:100B8800A02D21080319C92DCA2DCF2DA209A3090B
:100B9800A20A0319A30A2308F4002208F300080094
:100BA800F8006430F3000030F4007808831203136F
:100BB800A400A5012408F5002508F6000A128A11E8
:100BC8006B250A128A11730883120313A6002608DC
:100BD800EA006430F3000030F4007808A400A501AE
:100BE8002408F5002508F6000A128A1134260A128C
:100BF8008A11730883120313A6002608FA000A3024
:100C0800F3000030F4007A08A400A5012408F500D8
:100C18002508F6000A128A116B250A128A11730830
:100C280083120313A6002608E9000A30F3000030F7
:100C3800F4007A08A400A5012408F5002508F600A8
:100C48000A128A1134260A128A11730883120313AE
:100C5800A6002608FA007A08A4002408E80008007C
:100C680083120313A101F61F3A2E3B2E422EF509DB
:100C7800F609F50A0319F60AA101A10AF41F452E7F
:100C8800462E4B2EF309F409F30A0319F40A7308E4
:100C980074040319502E512E802EA001A00A5F2E35
:100CA80001300310F30DF40DFF3E031D552E0130E6
:100CB800F7007708A007F41F622E632E542E7408DD
:100CC8007602031D692E73087502031C6C2E6D2EA7
:100CD800732E7308F5027408031CF603F60201303C
:100CE8000310F40CF30CFF3E031D742E0130A00218
:100CF800031D7F2E802E632E21080319842E852E36
:100D08008A2EF509F609F50A0319F60A7608F40099
:100D18007508F3000800033083160317880089015B
:100D2800033083160313850083120313850183168A
:100D380003138701831203138701831603138801A2
:100D48008312031388018316031386018312031386
:100D58008601831603130F088F3960388F000F142C
:100D68009F131F129F12831203131F083F39403825
:100D78009F00C3309F051F141030F300F30BC22EE1
:100D8800000083160313811281110108F839013814
:100D9800810006308312031381008B170B1783160B
:100DA80003130C178B16831203130C130B11080073
:100DB800831203130C1FE12EE22EF32E1F0CF000FA
:100DC800700C0F39003A031DEA2EEB2EF02E1E0888
:100DD800F0007008EC00F22E1E0886000C130B1DA4
:100DE800F62EF72E202F88017908031DFC2EFD2EE4
:100DF800042F6508870001308800F901F90A1D2FC2
:100E08007903031D082F092F122F66088700023067
:100E180088000230F0007008F9001D2F02307906B2
:100E2800031D172F182F1D2F67088700043088000F
:100E3800F901063081000B1172088A00710E8300D7
:100E4800FE0E7E0E090083120313A400A001A10167
:100E58007308F500F6017508A2007608A300241CA3
:100E6800362F372F3D2F2208A0070318A10A230881
:100E7800A10701300310A20DA30DFF3E031D3E2F55
:100E88000310A40C2408031D4A2F4B2F332F2108CD
:100E9800F4002008F30008007E088A007F0882001A
:100EA8000A128A1150270A128A118000840A04083B
:100EB8007D0603190034FF0A0319FE0A542F3F3434
:100EC80006345B344F3466346D347D3407347F34F4
:0E0ED8006F3477347C3439345E3479347134BD
:08400000FF3FFF3FFF3FFF3FC0
:04400E00D420FF3F7C
:00000001FF
